:100000000C943E000C9448000C9448000C9448005A
:100010000C9448000C9448000C9448000C94480040
:100020000C9448000C9448000C9448000C94480030
:100030000C9448000C9448000C9448000C94480020
:100040000C9448000C9448000C9448000C94480010
:100050000C9448000C9448000C9448000C94480000
:100060000C9448000C9448000C9448000C944800F0
:100070000C9448000C9448000C94480011241FBEB6
:10008000CFEFD8E0DEBFCDBF0E94B1000C94F300EB
:100090000C9400001198109808951198109A0895E2
:1000A000119A109808956AE070E00E94BD0080E007
:1000B00090E08617970709F408952AE12A95F1F749
:1000C00000C00196F6CF0F931F93CF93DF93282F95
:1000D00008EE13E0209FC001219F900D112464E6DB
:1000E00070E00E94BD00EB010E945000CE010E9412
:1000F00053000E944A00C8018C1B9D0BDF91CF91D9
:100100001F910F910C9453008F929F92AF92BF92C8
:10011000CF92DF92EF92FF9280EEC82E83E9D82E25
:1001200084E0E82EF12C98EB892E9BE0992EA12CEF
:10013000B12CC701B601A50194010E94D100822F04
:100140000E94630084E6C81AD108E108F10889F723
:10015000FF90EF90DF90CF90BF90AF909F908F90E7
:10016000089581B1836081B90E944A000E945000C5
:100170000E94840080E090E00895AA1BBB1B51E11F
:1001800007C0AA1FBB1FA617B70710F0A61BB70B07
:10019000881F991F5A95A9F780959095BC01CD01AC
:1001A0000895A1E21A2EAA1BBB1BFD010DC0AA1FB8
:1001B000BB1FEE1FFF1FA217B307E407F50720F0D0
:1001C000A21BB30BE40BF50B661F771F881F991F4B
:1001D0001A9469F760957095809590959B01AC0194
:0A01E000BD01CF010895F894FFCF90
:00000001FF
